:020000040800F2
:100000000040022081030008B3010008B701000886
:1000100000000000000000000000000000000000E0
:10002000000000000000000000000000BB0100080C
:100030000000000000000000BF010008C30100082C
:10004000D1030008D1030008D1030008D103000840
:10005000D1030008D1030008D1030008D103000830
:10006000D1030008D1030008D1030008D103000820
:10007000D1030008D1030008D1030008D103000810
:10008000D1030008D1030008D1030008D103000800
:10009000D1030008CD010008D1030008D1030008F6
:1000A000D1030008D1030008D1030008D1030008E0
:0C00B000D1030008D1030008D1030008B0
:1000BC00002934D00123002210B488422CD301240F
:1000CC002407A14204D2814202D209011B01F8E7A4
:1000DC00E400A14204D2814202D249005B00F8E75D
:1000EC00884201D3401A1A434C08A04202D3001B89
:1000FC005C0822438C08A04202D3001B9C082243BC
:10010C00CC08A04202D3001BDC082243002803D0F9
:10011C001B0901D00909E3E7100010BC704701B5B9
:10012C00002000F00BF802BD0029F8D003B5FFF752
:10013C00C1FF0EBC4243891A1847C0467047C046DF
:10014C0010B5064C2378002B07D1054B002B02D0A1
:10015C00044800E000BF0123237010BD1C000020E8
:10016C0000000000EC330008044B10B5002B03D04A
:10017C000349044800E000BF10BDC0460000000069
:10018C0020000020EC33000810B500F01FF902F03D
:10019C00FDFB02F043FF02F04FFC02F07FFF03F087
:1001AC004FF8C046F7E7C0467047C0467047C04698
:1001BC007047C046704710B500F072F9C04610BDCC
:1001CC0010B5034B180001F0A7FAC04610BDC0468D
:1001DC003C000020C046704700B58BB00190284B06
:1001EC00DA6B274B802149010A43DA63244BDA6B23
:1001FC0080235B0113400493049B214B5A6B204BCF
:10020C0008210A435A631E4B5B6B0822134003936D
:10021C00039B05AB02225A6005AB03221A6105ABA6
:10022C0003221A6005AB00229A6005AB0222DA6049
:10023C0005AB144A1900100000F086FD05AB022234
:10024C005A6005AB03221A6105ABC02212021A6078
:10025C0005AB00229A6005AB0222DA6005AB094AB5
:10026C001900100000F070FD00220221152000F092
:10027C00DDF9152000F0EEF9C0460BB000BDC0460C
:10028C0000100240000C005000B5A9B0019019AB51
:10029C0018003C231A00002103F076F806AB180076
:1002AC004C231A00002103F06FF8314B1A6C304BC1
:1002BC0001210A431A642E4B1B6C01221340059337
:1002CC00059B2B4BDA6B2A4B802149050A43DA63D9
:1002DC00274BDA6B80235B0513400493049B80232C
:1002EC009B00180002F094FA02F086FA204BDA6DAB
:1002FC001F4B18218A43DA6506AB802292021A60E2
:10030C0006AB00221A6406AB180001F063FC19ABB3
:10031C000C221A6019AB00221A6219AB01229A60E6
:10032C0019AB00229A6119AB180000F0AFF906ABBB
:10033C00802252001A6406AB180001F04BFC0C4BE7
:10034C00DA6D0B4B802109020A43DA65084BDA6B34
:10035C00074B8021C9000A43DA63054BDA6B802313
:10036C00DB0013400393039BC04629B000BDC0467D
:10037C00001002400D48854600F025F80C480D4948
:10038C000D4A002302E0D458C4500433C4188C42E4
:10039C00F9D30A4A0A4C002301E013600432A2424A
:1003AC00FBD302F0F9FFFFF7EFFEFEE7004002205F
:1003BC00000000201C000020643400081C000020F9
:1003CC00DC010020FEE7C0467047000000B583B09A
:1003DC006B46073300221A700C4B1A680B4B8021AA
:1003EC0049000A431A60002000F012F8031E04D0E2
:1003FC006B46073301221A7001E0FFF7EBFE6B46E8
:10040C0007331B78180003B000BDC0460020024023
:10041C0010B584B001900F236B4400221A701D4B51
:10042C001B78002B2BD01C4B1C681A4B1B7819000B
:10043C00FA239800FFF73CFE030019002000FFF799
:10044C0037FE0300180000F015F9031E12D1019BB2
:10045C00032B0AD8019901235B420022180000F0FB
:10046C00E5F80E4B019A1A600DE00F236B44012244
:10047C001A7008E00F236B4401221A7003E00F235B
:10048C006B4401221A700F236B441B78180004B0C4
:10049C0010BDC04608000020000000200400002011
:1004AC00044B1B781A00044B1B68D218024B1A60C1
:1004BC00C04670470800002038000020014B1B6824
:1004CC00180070473800002082B002006B460733DA
:1004DC001A706B4607331B787F2B0AD86B46073391
:1004EC001B781A001F231A40034B012191400A006C
:1004FC001A60C04602B0704700E100E010B582B04F
:10050C00020000916B4607331A706B4607331B7859
:10051C007F2B2CD8324A6B4607331B785BB29B0877
:10052C00C0339B009B586A46073212781100032295
:10053C000A40D200FF2191400A00D2431A40110018
:10054C00009B9B01FF221A406B4607331B78180057
:10055C0003230340DB009A4021486B4607331B788A
:10056C005BB29B080A43C0339B001A5035E01D4A0E
:10057C006B4607331B7819000F230B40083B9B0875
:10058C0006339B00D31804331B686A460732127873
:10059C00110003220A40D200FF2191400A00D243ED
:1005AC001A401100009B9B01FF221A406B46073337
:1005BC001B78180003230340DB009A4009486B4664
:1005CC0007331B781C000F232340083B9B080A436E
:1005DC0006339B00C31804331A60C04602B010BD2A
:1005EC0000E100E000ED00E000B583B00190019B5C
:1005FC005A1E80235B049A4201D3012310E00A4B5C
:10060C00019A013A5A6001235B4203211800FFF75B
:10061C0075FF054B00229A60034B07221A600023DA
:10062C00180003B000BDC04610E000E000B585B076
:10063C00029101920F236B44021C1A70029A0F2331
:10064C006B441B785BB211001800FFF757FFC046D4
:10065C0005B000BD00B583B002006B4607331A70BD
:10066C006B4607331B785BB21800FFF72DFFC046B3
:10067C0003B000BD00B583B00190019B1800FFF7DB
:10068C00B3FF0300180003B000BD000000B589B033
:10069C000190019B002B02D1012300F04FFB019B29
:1006AC001B680122134000D17CE0C34B9B683822AD
:1006BC0013400693C04BDB68032213400593069B43
:1006CC00102B02D1059B032B02D0069B082B0BD1C0
:1006DC00B94B1A6880239B02134062D0019B5B6864
:1006EC00002B5ED1012329E3019B5A6880235B0216
:1006FC009A4207D1B04B1A68AF4B802149020A438A
:10070C001A6020E0019B5A68A023DB029A420ED1AA
:10071C00A94B1A68A84B8021C9020A431A60A64B40
:10072C001A68A54B802149020A431A600BE0A24BC0
:10073C001A68A14BA1490A401A609F4B1A689E4B3C
:10074C009F490A401A60019B5B68002B14D0FFF78D
:10075C00B5FE0300049308E0FFF7B0FE0200049B13
:10076C00D31A642B01D90323E8E2934B1A68802334
:10077C009B021340F0D015E0FFF7A0FE030004939A
:10078C0008E0FFF79BFE0200049BD31A642B01D9EF
:10079C000323D3E2884B1A6880239B021340F0D1C9
:1007AC0000E0C046019B1B680222134000D199E077
:1007BC00814B9B683822134006937F4BDB680322E6
:1007CC0013400593069B102B02D1059B022B02D0E4
:1007DC00069B002B35D1784B1A688023DB00134025
:1007EC0005D0019BDB68002B01D10123A6E2724BE3
:1007FC005B68744A13401900019B5B691A026E4BCB
:10080C000A435A60069B002B12D16B4B1B686E4A35
:10081C0013401900019B1A69674B0A431A60664B17
:10082C001B68DB0A07221340684ADA40684B1A60DF
:10083C00684B1B681800FFF7EBFD031E51D001231A
:10084C007CE2019BDB68002B30D05B4B1B685E4A63
:10085C0013401900019B1A69574B0A431A60564BF7
:10086C001A68554B802149000A431A60FFF726FE8F
:10087C000300049308E0FFF721FE0200049BD31A47
:10088C00022B01D9032359E24B4B1A688023DB005E
:10089C001340F0D0484B5B684A4A13401900019B47
:1008AC005B691A02444B0A435A601BE0424B1A68BC
:1008BC00414B49490A401A60FFF700FE03000493BC
:1008CC0008E0FFF7FBFD0200049BD31A022B01D9B1
:1008DC00032333E2384B1A688023DB001340F0D13A
:1008EC0000E0C046019B1B680822134047D0324BE6
:1008FC009B6838221340182B0AD12F4B1B6E0222F7
:10090C0013403CD0019B9B69002B38D1012315E28D
:10091C00019B9B69002B19D0274B1A6E264B01218A
:10092C000A431A66FFF7CAFD0300049308E0FFF7B9
:10093C00C5FD0200049BD31A022B01D90323FDE150
:10094C001D4B1B6E02221340F1D018E01A4B1A6E8D
:10095C00194B01218A431A66FFF7B0FD030004937B
:10096C0008E0FFF7ABFD0200049BD31A022B01D960
:10097C000323E3E1104B1B6E02221340F1D1019BC8
:10098C001B680422134000D1C6E01F236B440022D5
:10099C001A70094B9B6838221340202B1ED1064B32
:1009AC00DB6D0222134000D1B6E0019B9B68002B4B
:1009BC0000D0B1E00123C1E100100240FFFFFEFFB7
:1009CC00FFFFFBFFFF80FFFFFFC7FFFF0024F400CA
:1009DC000000002004000020FFFEFFFFB54BDA6B87
:1009EC0080235B05134001D1012300E00023002B81
:1009FC0011D0B04BDA6BAF4B802149050A43DA6357
:100A0C00AC4BDA6B80235B0513400393039B1F23D2
:100A1C006B4401221A70A84B1A6880235B001340A8
:100A2C001AD1A54B1A68A44B802149000A431A60BD
:100A3C00FFF744FD0300049308E0FFF73FFD0200BD
:100A4C00049BD31A022B01D9032377E19A4B1A6822
:100A5C0080235B001340F0D0019B9B68012B06D1D7
:100A6C00944BDA6D934B01210A43DA651CE0019B30
:100A7C009B68052B0CD18F4BDA6D8E4B04210A43EE
:100A8C00DA658C4BDA6D8B4B01210A43DA650BE08E
:100A9C00884BDA6D874B01218A43DA65854BDA6D19
:100AAC00844B04218A43DA65019B9B68002B14D08C
:100ABC00FFF704FD0300049309E0FFF7FFFC0200BD
:100ACC00049BD31A7D4A934201D9032336E1794B17
:100ADC00DB6D02221340F0D013E0FFF7EFFC0300B4
:100AEC00049309E0FFF7EAFC0200049BD31A734A53
:100AFC00934201D9032321E16E4BDB6D022213409B
:100B0C00F0D11F236B441B78012B05D1694BDA6B99
:100B1C00684B6B490A40DA63019B1B682022134027
:100B2C0039D0019BDB69002B1BD0624B1A68614BDF
:100B3C008021C9030A431A60FFF7C0FC0300049329
:100B4C0008E0FFF7BBFC0200049BD31A022B01D96F
:100B5C000323F3E0574B1A6880231B041340F0D097
:100B6C0019E0544B1A68534B56490A401A60FFF768
:100B7C00A5FC0300049308E0FFF7A0FC0200049B13
:100B8C00D31A022B01D90323D8E04A4B1A688023CD
:100B9C001B041340F0D1019B1B6A002B00D1CCE04D
:100BAC00444B9B6838221340102B00D17BE0019BF7
:100BBC001B6A022B56D13F4B1A683E4B42490A40E6
:100BCC001A60FFF77BFC0300049308E0FFF776FC48
:100BDC000200049BD31A022B01D90323AEE0354B40
:100BEC001A6880239B041340F0D1324BDB68374AE0
:100BFC0013401900019B5A6A019B9B6A1A43019B83
:100C0C00DB6A1B021A43019B1B6B1A43019B5B6B38
:100C1C001A43019B9B6B1A43264B0A43DA60254B04
:100C2C001A68244B802149040A431A60214BDA6864
:100C3C00204B802149050A43DA60FFF73FFC030093
:100C4C00049308E0FFF73AFC0200049BD31A022B32
:100C5C0001D9032372E0174B1A6880239B041340BD
:100C6C00F0D06AE0134B1A68124B17490A401A600D
:100C7C00FFF724FC0300049308E0FFF71FFC0200BD
:100C8C00049BD31A022B01D9032357E0094B1A6892
:100C9C0080239B041340F0D1064BDA68054B0C49BA
:100CAC000A40DA6049E0019B1B6A012B12D1012337
:100CBC0044E0C04600100240007000408813000061
:100CCC00FFFFFFEFFFFFBFFFFFFFFFFE8C80C11197
:100CDC00FCFFFEEE1B4BDB680593059B03221A40C1
:100CEC00019B5B6A9A4226D1059B70221A40019B9C
:100CFC009B6A9A421FD1059AFE23DB011A40019B85
:100D0C00DB6A1B029A4216D1059AF8239B031A4000
:100D1C00019B1B6B9A420ED1059AE0231B051A40CE
:100D2C00019B5B6B9A4206D1059B5B0F5A07019B9B
:100D3C009B6B9A4201D0012300E00023180009B0FC
:100D4C0000BDC0460010024000B587B00190009174
:100D5C00002305934DE1009B1B680121059A9140EE
:100D6C000A0013400393039B002B00D13EE1009B30
:100D7C005B6803221340012B05D0009B5B680322A8
:100D8C001340022B30D1019B9B680493059B5B00A5
:100D9C0003229A401300DA43049B13400493009BF4
:100DAC00DA68059B5B009A401300049A1343049382
:100DBC00019B049A9A60019B5B6804930122059B3A
:100DCC009A401300DA43049B13400493009B5B6826
:100DDC001B0901221A40059B9A401300049A1343E5
:100DEC000493019B049A5A60009B5B680322134096
:100DFC00032B17D0019BDB680493059B5B0003223C
:100E0C009A401300DA43049B13400493009B9A68A6
:100E1C00059B5B009A401300049A13430493019BB7
:100E2C00049ADA60009B5B6803221340022B23D1E7
:100E3C00059BDA08019B08329200D3580493059B5A
:100E4C00072213409B000F229A401300DA43049BA5
:100E5C0013400493009B1A69059B07210B409B00D0
:100E6C009A401300049A13430493059BDA08019BE0
:100E7C00083292000499D150019B1B680493059B86
:100E8C005B0003229A401300DA43049B1340049343
:100E9C00009B5B6803221A40059B5B009A40130081
:100EAC00049A13430493019B049A1A60009B5A689A
:100EBC00C0239B02134000D198E0534A059B9B082A
:100ECC0018339B009B580493059B03221340DB00B3
:100EDC000F229A401300DA43049B13400493019AA7
:100EEC00A023DB059A4219D0019B484A934213D0A8
:100EFC00019B474A93420DD0019B464A934207D02F
:100F0C00019B454A934201D1042308E0052306E0E6
:100F1C00032304E0022302E0012300E00023059AEE
:100F2C0003210A40D2009340049A13430493364998
:100F3C00059B9B0818339B00049A5A50324B1B6834
:100F4C000493039BDA43049B13400493009B5A685D
:100F5C0080235B03134003D0049A039B1343049335
:100F6C00294B049A1A60284B5B680493039BDA4361
:100F7C00049B13400493009B5A6880239B031340EB
:100F8C0003D0049A039B134304931F4B049A5A6097
:100F9C001D4A8423D3580493039BDA43049B1340C8
:100FAC000493009B5A6880239B02134003D0049A3D
:100FBC00039B1343049314498422049B8B50124AC1
:100FCC008023D3580493039BDA43049B134004936C
:100FDC00009B5A6880235B02134003D0049A039B46
:100FEC001343049308498022049B8B50059B0133C7
:100FFC000593009B1A68059BDA40131E00D0AAE6E5
:10100C00C046C04607B000BD0018024000040050A6
:10101C0000080050000C00500010005000B585B0C6
:10102C000190019B002B01D101234EE1019B5C221D
:10103C009B5CDBB2002B07D1019B5D2200219954F4
:10104C00019B1800FFF7C8F8019B1B689A69019B6C
:10105C001B6810218A439A61FFF730FA030003934F
:10106C0012E0FFF72BFA0200039BD31A0A2B0BD9C1
:10107C00019B1B6E01221A43019B1A66019B5C2289
:10108C0003219954012320E1019B1B689B690822D1
:10109C001340082BE5D0019B1B689A69019B1B68C8
:1010AC0001210A439A61FFF709FA0300039312E046
:1010BC00FFF704FA0200039BD31A0A2B0BD9019BEE
:1010CC001B6E01221A43019B1A66019B5C220321B1
:1010DC0099540123F9E0019B1B689B690122134081
:1010EC00E6D0019B1B689A69019B1B6802210A438D
:1010FC009A61019B1B68764A934203D1754A019B06
:10110C005B681360019B1B7C012B08D1019B1B6846
:10111C009A69019B1B6840218A439A6107E0019BF5
:10112C001B689A69019B1B6840210A439A61019BC9
:10113C005B7C012B09D1019B1B689A69019B1B6885
:10114C008021C9010A439A6107E0019B1B689A69D7
:10115C00019B1B6860490A409A61019B9B7C012B97
:10116C0008D1019B1B689A69019B1B685B490A406B
:10117C009A6108E0019B1B689A69019B1B6880219E
:10118C0049010A439A61019B1B689B69544A1340AD
:10119C001900019B9A68019B1B680A439A61019B89
:1011AC001B689A69019B1B68A4218A439A61019B65
:1011BC001B681A69019B1B6810218A431A61019BE9
:1011CC00DB68012B08D1019B1B689A69019B1B688A
:1011DC0004210A439A612CE0019BDB68002B28D088
:1011EC00019BDB68022B1CD0019B1B689A69019B3D
:1011FC001B6880210A439A61019B1B681A69019B39
:10120C001B6810210A431A61019BDB68032B10D168
:10121C00019B1B689A69019B1B6820210A439A61F8
:10122C0007E0019B1B689A69019B1B6820210A43FC
:10123C009A61019B9B69013B5A06019BDB69013B4F
:10124C001B021A43019B1B6A013B1A431100019BB1
:10125C005B69013B1A04019B1B680A43DA61019B21
:10126C009A68C0239B009A4215D1019B9B6A5A1E17
:10127C00019BDB6A013B1B021A43019B1B6B013B6D
:10128C001B011A431100019B5B6A013B1A04019B71
:10129C001B680A43DA60019B1B68C0229958019BAA
:1012AC00DA6B019B1B680A43C0215A50019B180042
:1012BC0000F0AEFB019B00229A65019B00221A668E
:1012CC00019B5C22012199540023180005B000BD3C
:1012DC000064004000650040FFBFFFFFFFEFFFFF11
:1012EC00FFFCFFFF82B00190019B5C229B5CDBB298
:1012FC00012B10D1019B5C2202219954019B1B688C
:10130C009A69019B1B6801218A439A61019B002207
:10131C001A66002306E0019B1B6E04221A43019BF4
:10132C001A660123180002B0704700B587B003900D
:10133C0002910192039B5C229B5CDBB2022B2DD1B0
:10134C00039B1B68C4229A5880239B03134008D02C
:10135C00039B1B6E802292001A43039B1A66012387
:10136C0023E0039B1B68C4229B581B0C03221340D5
:10137C000593059B019A0299039800F0B3FB039B1C
:10138C001B680121059A91400A00CC215A50012278
:10139C00059B9A40039B9A65002306E0039B1B6EFA
:1013AC0008221A43039B1A660123180007B000BDDC
:1013BC008AB003900291019200931B236B44039A11
:1013CC005C21525C1A701B236B441B78022B00D0DF
:1013DC00C1E0029B402B21D1039B1B6890229B58A0
:1013EC000F22134008D1039B1B6E802252001A431C
:1013FC00039B1A660123B5E0039B1B6890229B5844
:10140C001B0A032213400793039B996C079A130042
:10141C00DB009B18DB00CB18099320E0039B1B68B7
:10142C0098229B580F22134008D1039B1B6E8022DD
:10143C0052001A43039B1A66012393E0039B1B681B
:10144C0098229B581B0A032213400793039BD96CC9
:10145C00079A1300DB009B18DB00CB180993099B40
:10146C001A688023DB051A40019B5A60019B5B685C
:10147C00002B07D1099B1B689B0C5B055A0D019B2C
:10148C001A6005E0099B1B68DB00DA08019B1A60F7
:10149C00099B1A6880239B051A40019B9A60099B43
:1014AC001B68DB0FDA07019B1A61099B0433099354
:1014BC00099B1B681B041A0C019BDA61099B1A68B7
:1014CC00F0231B031A40019BDA60099B1A688023E6
:1014DC005B031A40019B5A61099B1A6880239B038A
:1014EC001A40019B9A61099B1B681B0E7F221A40B4
:1014FC00019B1A62099B1B68DA0F019B5A62099BBC
:10150C0004330993099B0593002308930AE0059A79
:10151C00089BD2180099089BCB1812781A70089B5C
:10152C0001330893019BDB681B0C104AD35C1A0037
:10153C00089B9342EBD3029B402B05D1039B1B686A
:10154C009421079A5A5004E0039B1B689C21079A2C
:10155C005A50002306E0039B1B6E08221A43039B80
:10156C001A66012318000AB07047C04618340008E8
:10157C0086B003900291019217236B44039A5C216D
:10158C00525C1A7017236B441B78012B05D0172360
:10159C006B441B78022B00D0B4E0039B1B689B6D43
:1015AC000493029B0722134003D0049B0122134097
:1015BC0034D0029B3822134003D0049B02221340E8
:1015CC002CD0029AE0235B00134003D0049B04222E
:1015DC00134023D0029AF0235B01134003D0049BE9
:1015EC00082213401AD0029AE0231B02134003D0A6
:1015FC00049B1022134011D0029AC0239B0213406B
:10160C0003D0049B2022134008D0029AFC231B0415
:10161C0013400BD0049B4022134007D1039B1B6843
:10162C00DA6D039B1B6801210A43DA65029B0722D2
:10163C00134003D0049B0122134034D1029B382267
:10164C00134003D0049B022213402CD1029AE023B6
:10165C005B00134003D0049B0422134023D1029A55
:10166C00F0235B01134003D0049B082213401AD1D2
:10167C00029AE0231B02134003D0049B1022134058
:10168C0011D1029AC0239B02134003D0049B202249
:10169C00134008D1029AFC231B0413400BD0049B6B
:1016AC004022134007D0039B1B68DA6D039B1B6819
:1016BC0002210A43DA65029B8022134009D0039B66
:1016CC001B68DC229958039B1B68019A0A43DC2196
:1016DC005A50029A80235B00134009D0039B1B686D
:1016EC00E0229958039B1B68019A0A43E0215A5047
:1016FC00039B1B68596D039B1B68029A0A435A652E
:10170C00002306E0039B1B6E02221A43039B1A66FE
:10171C000123180006B0704700B58DB00190019BF5
:10172C001B681A6DE0235B0113400B93019B1B6834
:10173C005A6D0B9B13400B93019B1B681B6D07226F
:10174C0013400A93019B1B685A6D0A9B13400A9322
:10175C00019B1B681B6D382213400993019B1B686E
:10176C005A6D099B13400993019B1B681A6DF12359
:10177C001B0413400893019B1B685A6D089B134074
:10178C000893019B1B681A6DE0231B0313400793FE
:10179C00019B1B685A6D079B13400793019B1B68A9
:1017AC005B6D0693019B1B681B6D0593059B9B0949
:1017BC001A00012313400DD0069B9B091A0001232C
:1017CC00134007D0019B1B6840221A65019B18002F
:1017DC0000F00EF9059B1B0A1A00012313401CD0C4
:1017EC00069B1B0A1A000123134016D0019B1B6891
:1017FC00D8229B580493019B1B68E0229A58049BA7
:10180C0013400493019B1B68802252001A65049AB2
:10181C00019B1100180000F0DBF80B9B002B09D08A
:10182C00019B1B680B9A1A650B9A019B11001800FF
:10183C0000F0B7F80A9B002B09D0019B1B680A9A91
:10184C001A650A9A019B1100180001F01FF8099BF8
:10185C00002B09D0019B1B68099A1A65099A019BF8
:10186C001100180000F0A3F8059B5B0A1A00012375
:10187C0013400ED0069B5B0A1A000123134008D0BC
:10188C00019B1B68802292001A65019B180000F0D6
:10189C0094F8059BDB091A00012313401BD0069B0F
:1018AC00DB091A000123134015D0019B1B68D422BD
:1018BC009B580393019B1B68DC229A58039B134093
:1018CC000393019B1B6880221A65039A019B1100EC
:1018DC00180000F077F8059B5B0B1A0001231340EE
:1018EC000ED0069B5B0B1A000123134008D0019B02
:1018FC001B68802292011A65019B180000F06EF89B
:10190C00059BDB0B1A00012313400ED0069BDB0B4F
:10191C001A000123134008D0019B1B68802212027D
:10192C001A65019B180000F05EF8059B9B0B1A00D2
:10193C000123134010D0069B9B0B1A00012313406C
:10194C000AD0019B1B688022D2011A65019B1B6E79
:10195C0080221A43019B1A66079B002B09D0019B1E
:10196C001B68079A1A65079A019B1100180000F072
:10197C0049F8089B002B09D0019B1B68089A1A6533
:10198C00019B1A6E089B1A43019B1A66019B1B6EE6
:10199C00002B03D0019B180000F02FF8C0460DB0AF
:1019AC0000BD82B001900091C04602B0704782B079
:1019BC0001900091C04602B0704782B00190C046C1
:1019CC0002B0704782B001900091C04602B07047DF
:1019DC0082B001900091C04602B0704782B0019075
:1019EC00C04602B0704782B00190C04602B070474A
:1019FC0082B00190C04602B0704782B00190C046E0
:101A0C0002B0704782B001900091C04602B070479E
:101A1C0084B001902F4B0293019B1B682E4A93427A
:101A2C0005D1029BD4229200944663440293019BFD
:101A3C00029A1A64019B1B6880229B58274A134008
:101A4C001900019B5B6B1A04019B1B680A438021E4
:101A5C005A50029B70331A00019B5A64019B1B68FD
:101A6C0080229B581E4A13401900019B9B6B1A063F
:101A7C00019B1B680A4380215A50029BB0331A0009
:101A8C00019B9A64029B8933FF331A00019BDA6431
:101A9C00029B982292009A18019B1A65029B9E2227
:101AAC0092009A18019B5A65029B039305E0039BD5
:101ABC0000221A60039B04330393029BD4229200EE
:101ACC0094466344039A9A42F1D3C046C04604B08C
:101ADC007047C04600B4004000680040FFFFE0FFC4
:101AEC00FFFFFFF088B00390029101920093029BDC
:101AFC005B68002B0AD1029B1A69029B9B681A43F4
:101B0C00029B1B689B04134307930BE0029B1A690F
:101B1C00029B9B681A43029B1B6813438022D205CD
:101B2C0013430793029B1B6A1A06029BDB691A4339
:101B3C00029B9B691A43029B5B691A43029BDB68FD
:101B4C0013430493039B596D009A1300DB009B18FD
:101B5C00DB00CB180693069B079A1A60069B04338E
:101B6C000693069B049A1A60069B04330693002383
:101B7C00059320E0059B0333019AD3181B781A06B2
:101B8C00059B02330199CB181B781B041A43059B48
:101B9C0001330199CB181B781B0213430199059A49
:101BAC008A1812781A43069B1A60069B0433069314
:101BBC00059B04330593029BDB681B0C044AD35C26
:101BCC001A00059B9342D5D3C046C04608B0704757
:101BDC001834000800B587B0019013236B44002221
:101BEC001A7012236B4400221A70019B1A6880230E
:101BFC009B02134000D1AEE011236B4400221A70FB
:101C0C00474BDA6B80235B05134011D1444BDA6BE5
:101C1C00434B802149050A43DA63414BDA6B80233D
:101C2C005B0513400293029B11236B4401221A7033
:101C3C003C4B1A683B4B802149000A431A60FEF763
:101C4C003DFC030003930BE0FEF738FC0200039B02
:101C5C00D31A022B04D913236B4403221A7005E008
:101C6C00304B1A6880235B001340EDD013236B4478
:101C7C001B78002B5ED12A4BDA6DC0239B001340DE
:101C8C000593059B002B19D0019B1B6C059A9A425E
:101C9C0014D0234BDB6D244A13400593204BDA6D93
:101CAC001F4B802149020A43DA651D4BDA6D1C4B30
:101CBC001E490A40DA651A4B059ADA65059B012222
:101CCC00134016D0FEF7FAFB030003930CE0FEF76B
:101CDC00F5FB0200039BD31A154A934204D9132334
:101CEC006B4403221A7004E00D4BDB6D022213408F
:101CFC00EDD013236B441B78002B0AD1084BDB6D02
:101D0C00094A13401900019B1A6C054B0A43DA650A
:101D1C0016E012236B4413226A4412781A700FE0F7
:101D2C000010024000700040FFFCFFFFFFFFFEFFB1
:101D3C008813000012236B4413226A4412781A7021
:101D4C0011236B441B78012B05D1B64BDA6BB54BC9
:101D5C00B5490A40DA63019B1B680122134009D084
:101D6C00B04B5B6D032293431900019B5A68AD4B3A
:101D7C000A435A65019B1B680222134009D0A94BE8
:101D8C005B6D0C2293431900019B9A68A54B0A4387
:101D9C005A65019B1B680422134009D0A14B5B6D53
:101DAC00302293431900019BDA689E4B0A435A6513
:101DBC00019B1B681022134009D09A4B5B6D9B4A08
:101DCC0013401900019B1A69964B0A435A65019BF3
:101DDC001A6880235B01134009D0924B5B6D944AC7
:101DEC0013401900019B5A698E4B0A435A65019B9B
:101DFC001A6880239B00134009D08A4B5B6D8D4A77
:101E0C0013401900019B9A6A864B0A435A65019B41
:101E1C001A688023DB00134009D0824B5B6D864A25
:101E2C0013401900019BDA6A7E4B0A435A65019BE9
:101E3C001B682022134009D07A4B5B6D7F4A1340FC
:101E4C001900019B9A69774B0A435A65019B1B68E1
:101E5C004022134009D0734B5B6D794A1340190033
:101E6C00019BDA696F4B0A435A65019B1A68802300
:101E7C00DB01134015D06B4B5B6D9B009908019BEC
:101E8C001A6B684B0A435A65019B1A6B8023DB055E
:101E9C009A4206D1634BDA68624B802149020A43AD
:101EAC00DA60019B1A6880231B03134009D05D4B39
:101EBC005B6D402293431900019B5A6B594B0A43AB
:101ECC005A65019B1A6880239B03134016D0554B0F
:101EDC005B6D5C4A13401900019B9A6B514B0A4392
:101EEC005A65019B9A6B8023DB039A4206D14D4BBA
:101EFC00DA684C4B802149040A43DA60019B1A686A
:101F0C008023DB03134016D0464B5B6D4E4A1340C7
:101F1C001900019BDA6B434B0A435A65019BDA6B40
:101F2C0080235B049A4206D13E4BDA683D4B8021FC
:101F3C0049040A43DA60019B1A6880231B01134091
:101F4C0014D0384B9B6D032293431900019B1A6AE2
:101F5C00344B0A439A65019B1B6A012B06D1314B0A
:101F6C00DA68304B802149020A43DA60019B1A6817
:101F7C0080239B01134014D02A4B9B6D0C2293435E
:101F8C001900019B5A6A274B0A439A65019B5B6AAD
:101F9C00042B06D1234BDA68224B802149020A43D9
:101FAC00DA60019B1A6880235B04134016D01D4B2A
:101FBC009B6D224A13401900019B5A6C194B0A4322
:101FCC009A65019B5A6C80239B019A4206D1154B52
:101FDC00DA68144B802149040A43DA60019B1A68C1
:101FEC0080239B04134016D00E4B9B6D104A13405C
:101FFC001900019B9A6C0B4B0A439A65019B9A6CD6
:10200C0080235B009A4206D1064BDA68054B80218F
:10201C0049040A43DA6012236B441B78180007B09A
:10202C0000BDC04600100240FFFFFFEFFFF3FFFFB3
:10203C00FFFCFFFFFFFFF3FFFFFFCFFFFFCFFFFF13
:10204C00FF3FFFFFFFFFBFFFFFFFFFFE10B584B098
:10205C0001900F236B4401221A70019B002B00D1BD
:10206C008DE0019B29229B5CDBB2002B0BD1019BE9
:10207C00282200219954019B882212025A60019B4C
:10208C001800FEF701F9019B292202219954019BAA
:10209C001B68DB6810221340102B63D0019B1B685C
:1020AC00CA225A62019B1B6853225A620F246C4449
:1020BC00019B180000F0EFFA030023700F236B4410
:1020CC001B78002B2DD1019B1B689A69019B1B6807
:1020DC002E490A409A61019B1B689969019B9A6879
:1020EC00019B5B691A43019BDB691A43019B1B68CB
:1020FC000A439A61019B1B68019A12691A61019B40
:10210C001B681969019BDB681A04019B1B680A4355
:10211C001A610F246C44019B180000F0FFFA0300B5
:10212C0023700F236B441B78002B16D1019B1B686B
:10213C009A69019B1B68D200D2089A61019B1B68AB
:10214C009969019B5A6A019B1B6A1A43019B9B6903
:10215C001A43019B1B680A439A61019B1B68FF226F
:10216C005A6203E00F236B4400221A700F236B4456
:10217C001B78002B03D1019B2922012199540F2399
:10218C006B441B78180004B010BDC046BFFF8FFB1A
:10219C0010B586B0039002910192039B28229B5CA0
:1021AC00012B01D1022393E0039B28220121995496
:1021BC00039B292202219954039B1B68CA225A6251
:1021CC00039B1B6853225A6213246C44039B180014
:1021DC0000F061FA0300237013236B441B78002B6F
:1021EC0062D1019B002B25D1039B1B689B6940226C
:1021FC00134002D1029B0022DA70029B1B7818005C
:10220C0000F0D0FA03001C04029B5B78180000F06D
:10221C00C9FA03001B021C43029B9B78180000F0B8
:10222C00C1FA030022001A43029BDB789B0513437F
:10223C00059317E0039B1B689B694022134002D156
:10224C00029B0022DA70029B1B781A04029B5B78BB
:10225C001B021343029A92781A43029BDB789B056C
:10226C0013430593039B1B68059A1B490A401A608C
:10227C00039B1B689A69039B1B6818490A409A6167
:10228C00039B1B689969029BDA68029B1B691A43C2
:10229C00039B1B680A439A6113246C44039B18002C
:1022AC0000F03CFA03002370039B1B68FF225A6268
:1022BC0013236B441B78002B03D1039B2922012190
:1022CC009954039B28220021995413236B441B78A7
:1022DC00180006B010BDC0467F7F7F00FFFFFBFFDC
:1022EC0010B586B0039002910192039B28229B5C4F
:1022FC00012B01D102237FE0039B28220121995459
:10230C00039B292202219954019B002B0ED1029B85
:10231C005B781A001023134008D0029B5B781022C4
:10232C009343DBB20A33DAB2029B5A70019B002B47
:10233C001CD1029BDB78180000F034FA03001C045B
:10234C00029B5B78180000F02DFA03001B021C4363
:10235C00029B9B78180000F025FA030022001A4318
:10236C00029B1B785B03134305930EE0029BDB7807
:10237C001A04029B5B781B021343029A92781A434D
:10238C00029B1B785B0313430593039B1B68CA22B8
:10239C005A62039B1B6853225A6213246C44039B9E
:1023AC00180000F078F90300237013236B441B789A
:1023BC00002B0DD1039B1B68059A11490A405A60EA
:1023CC0013246C44039B180000F0A8F9030023703D
:1023DC00039B1B68FF225A6213236B441B78002B50
:1023EC0003D1039B292201219954039B282200210C
:1023FC00995413236B441B78180006B010BDC046CB
:10240C003FFFFF0010B588B0039002910192039B2F
:10241C0028229B5C012B01D102230CE1039B282277
:10242C0001219954039B292202219954019B002BD1
:10243C0036D1039B1B689B694022134002D1029B3F
:10244C000022DA70029B1B78180000F0ABF9030035
:10245C001C04029B5B78180000F0A4F903001B021B
:10246C001C43029B9B78180000F09CF9030022008F
:10247C001A43029BDB789B051A431400029B202213
:10248C009B5C180000F08EF903001B0622001A4317
:10249C00029BDB691A43029B5B691343079322E09F
:1024AC00039B1B689B694022134002D1029B0022B4
:1024BC00DA70029B1B781A04029B5B781B02134395
:1024CC00029A92781A43029BDB789B051A43029B73
:1024DC0020215B5C1B061A43029BDB691A43029B9F
:1024EC005B6913430793029B5A68029B9B691343D6
:1024FC000693039B1B68CA225A62039B1B685322D8
:10250C005A62029B5A6A80235B009A4243D1039B16
:10251C001B689A69039B1B6848490A409A61039B94
:10252C001B689A69039B1B6845490A409A61FDF731
:10253C00C5FF0300059316E0FDF7C0FF0200059BE5
:10254C00D21AFA239B009A420DD9039B1B68FF22D7
:10255C005A62039B292203219954039B28220021B0
:10256C009954032367E0039B1B68DB68012213402B
:10257C00E2D0039B1B68079A1A64039B1B68069A9C
:10258C005A64039B1B689A69039B1B688021490052
:10259C000A439A6142E0039B1B689A69039B1B6880
:1025AC0028490A409A61039B1B689A69039B1B6824
:1025BC0025490A409A61FDF781FF0300059316E057
:1025CC00FDF77CFF0200059BD21AFA239B009A426E
:1025DC000DD9039B1B68FF225A62039B29220321FE
:1025EC009954039B282200219954032323E0039B35
:1025FC001B68DB6802221340E2D0039B1B68079A1E
:10260C009A64039B1B68069ADA64039B1B689A699D
:10261C00039B1B68802189000A439A61039B1B68FA
:10262C00FF225A62039B292201219954039B2822E1
:10263C00002199540023180008B010BDFFFEFFFFC5
:10264C00FFEFFFFFFFFDFFFFFFDFFFFF00B585B0D2
:10265C000190019B1B68DA68019B1B68A0218A43CF
:10266C00DA60FDF72BFF030003930AE0FDF726FF6A
:10267C000200039BD21AFA239B009A4201D903232E
:10268C0006E0019B1B68DB6820221340EED0002380
:10269C00180005B000BD00B585B001900F236B4448
:1026AC0000221A70019B1B68DB68402213402ED15C
:1026BC00019B1B68DA68019B1B6880210A43DA6066
:1026CC00FDF7FCFE0300029316E0FDF7F7FE020097
:1026DC00029BD21A0F236B440F216944097819709D
:1026EC00FA239B009A4207D90F236B4403221A70DA
:1026FC00019B292203219954019B1B68DB68402212
:10270C00134004D10F236B441B78032BDDD10F2313
:10271C006B441B78180005B000BD000000B585B0F7
:10272C0001900F236B4400221A701D4BDA681C4B6E
:10273C0080218A43DA601A4B9B69202213400ED108
:10274C00019B1800FFF782FF031E22D0019B292258
:10275C00032199540F236B4403221A7019E0104B78
:10276C009A690F4B20218A439A61019B1800FFF74D
:10277C006DFF031E07D0019B2922032199540F23BF
:10278C006B4403221A70064B9A69054B20210A43AD
:10279C009A610F236B441B78180005B000BDC0462E
:1027AC000028004084B002006B4607331A700023E7
:1027BC0003930B236B446A46073212781A7009E0B4
:1027CC00039B013303930B236B440B226A44127853
:1027DC000A3A1A700B236B441B78092BF0D8039B15
:1027EC00DBB21B01DAB20B236B441B781343DBB255
:1027FC00180004B070470000044B1A68034B80218A
:10280C0049000A431A60C0467047C0460070004039
:10281C0000B585B00190194B1B68194A134019007B
:10282C00164B019A0A431A60019A80239B009A4224
:10283C001FD1144B1A6813005B009B185B001249E4
:10284C001800FDF735FC03000133039308E0039BEC
:10285C00002B03D0039B013B039301E0032309E00E
:10286C00064B5A698023DB001A408023DB009A4216
:10287C00EDD00023180005B000BDC046007000402C
:10288C00FFF9FFFF0000002040420F0000B583B0AD
:10289C0001900091054B064A01984021FEF788FDF6
:1028AC00044B01221A70C04603B000BD0401002085
:1028BC00A00000200C01002084B001900091019B2D
:1028CC001A780D236B4412091A70019B1A7803AB0A
:1028DC000F210A401A700F236B4400221A70009BC0
:1028EC0003AA12781A700D236B441B78002B2BD182
:1028FC0003AB1B78002B27D003AB1B78072B23D8FB
:10290C000E236B4400221A7013E00E236B441B78C9
:10291C000133019AD2180E236B441B780199CB1802
:10292C0012781A700E236B441A780E236B44013202
:10293C001A70009B1B780E226A4412789A42E4D3D8
:10294C000F236B4401221A700F236B441B78180061
:10295C0004B0704700B583B001900A006B46033396
:10296C001A706B4603331B780F221340DAB2019BAB
:10297C001A70019A0349044B1800FEF7D6FCC046A6
:10298C0003B000BDC80000203C00002010B5264B51
:10299C00264A1A60244B0022DA60234B00229A60EC
:1029AC00214B00225A60204B0022DA631E4B0A2274
:1029BC005A611D4B01229A611B4B0B22DA611A4B97
:1029CC0004221A62184B1800FEF728FB184B002241
:1029DC005A60174B00229A61154B00229A60144BD7
:1029EC00912252001A60124B80221203DA60114BB2
:1029FC0000221A600F4B00225A600E4B02229A6082
:102A0C000C4B0122DA600B4B1222FF321A61064B7F
:102A1C001800FEF767FC044B002201211800FEF79A
:102A2C00A7FDC04610BDC0463C000020006400401D
:102A3C00C8000020EC00002010B582B06B460733B4
:102A4C0000221A709D4B1B78062B00D92EE19A00A0
:102A5C009B4BD3181B689F469A4B1B78012B00D0BD
:102A6C0028E1994A994B11001800FFF725FF030044
:102A7C00012B06D1914B01221A70924B00221A7035
:102A8C0002E08E4B06221A708E4B00221A7011E156
:102A9C008E4B1A788E4B1A708D4B1B78012B06D1EE
:102AAC008C4B01221A70854B02221A7003E1884B61
:102ABC001B78022B06D1874B02221A707F4B032204
:102ACC001A70F8E0824B1B78032B06D1814B032242
:102ADC001A707A4B04221A70EDE0784B06221A70A9
:102AEC00E9E07A4B5B786A46941D180000F0F8F820
:102AFC0003002370754B9B786A46541D180000F038
:102B0C00EFF803002370714BDB786A46541C1800F5
:102B1C0000F0E6F8030023706B4601331A786B461D
:102B2C00053319786B4606331B78180000F001F951
:102B3C00031E12D06B4606331A78664BDA606B466E
:102B4C0005331A78634B9A606B4601331A78614BE4
:102B5C005A605A4B05221A70ADE0584B06221A7077
:102B6C00A9E05A4B5B7801AC180000F0B9F80300EF
:102B7C002370564B9B786A46D41C180000F0B0F8B2
:102B8C0003002370514BDB786A46941C180000F04C
:102B9C00A7F8030023704D4B1B796A46D41D18000F
:102BAC0000F09EF8030023706B4607331C786B46CD
:102BBC0002331A786B460333197801AB187823006B
:102BCC0000F0E4F8031E27D001AB1A78414B1A61D0
:102BDC006B4603331A783F4B5A616B4602331B78B2
:102BEC0064225A436B4607331B78D3181A00394BAF
:102BFC009A61384B9B699AB26B460333197801ABD7
:102C0C001B78180000F04AF903001A00314BDA6106
:102C1C002A4B05221A704EE0284B06221A704AE005
:102C2C002A4B5B786A46941D180000F059F8030093
:102C3C002370264B9B786A46541D180000F050F800
:102C4C00030023706B4605331A786B4606331B78EA
:102C5C001100180000F0C0F9031E0DD06B460633AE
:102C6C001A781C4BDA606B4605331A78194B9A604C
:102C7C00124B05221A701EE0104B06221A701AE035
:102C8C00114B1A78144B11001800FFF763FE0B4B15
:102C9C0000221A700FE00C4B1A78104B1100180020
:102CAC00FFF758FE054B00221A7004E0034B00227C
:102CBC001A7000E0C046C04602B010BD0D010020E5
:102CCC00283400080C0100200E0100200401002013
:102CDC000F0100207C0100200C00002014000020BB
:102CEC0084B002006B4607331A700F236B446A469C
:102CFC000732127812091A700E236B446A46073297
:102D0C0012780F210A401A700F236B441B781A1C7F
:102D1C009200D318DB18D9B20D236B440E226A44EF
:102D2C0012788A181A700D236B441B78180004B0A3
:102D3C00704710B584B00400080011006B460733CF
:102D4C00221C1A706B460633021C1A706B46053334
:102D5C000A1C1A706B4607331B78172B0BD86B4663
:102D6C0006331B783B2B06D86B4605331B783B2B65
:102D7C0001D8012200E000220F236B441A700F23AC
:102D8C006B441B78180004B010BD000030B589B03E
:102D9C0005000C00100019006B4607332A1C1A7032
:102DAC006B460633221C1A706B460533021C1A70D4
:102DBC0001AB0A1C1A701F236B4401221A706B465C
:102DCC0005331B789BB26422534399B201AB1B7839
:102DDC009AB207AB8A181A8003AB2D4A13CA13C3D5
:102DEC0007AB1B882B4A934204D907AB1B882A4A92
:102DFC0093420DD96B4606331B78002B04D06B46DF
:102E0C0006331B780C2B03D91F236B4400221A703A
:102E1C0007AB1B88032213409BB2002B09D107ABD5
:102E2C001B8864211800FDF77FF90B009BB2002B67
:102E3C000AD107AB1B88C82251001800FDF774F9A2
:102E4C000B009BB2002B01D1012300E00023069361
:102E5C00069B002B02D003AB1D225A706B46073326
:102E6C001B78002B0AD06B4606331B78013B03AA58
:102E7C00D35C6A46073212789A4203D91F236B44FB
:102E8C0000221A701F236B441B78180009B030BD48
:102E9C00043400086C0700003308000010B58CB037
:102EAC000400080011006B460733221C1A706B4695
:102EBC000633021C1A7001AB0A1C1A8005AB444A7B
:102ECC0013CA13C303AB434A1168196091889980E4
:102EDC0092799A7101AB1B88032213409BB2002B91
:102EEC0009D101AB1B8864211800FDF71DF90B00FB
:102EFC009BB2002B0AD101AB1B88C82251001800D1
:102F0C00FDF712F90B009BB2002B01D1012300E05D
:102F1C0000230993099B002B02D005AB1D225A708C
:102F2C0000230B932A236B4400221A8011E0099B87
:102F3C00002B02D0B7235B0001E06E23FF330B9A0A
:102F4C00D3180B932A236B441A882A236B4401321F
:102F5C001A802A226A4401AB12881B889A42E6D353
:102F6C0029236B4401221A7010E029236B441B782F
:102F7C00013B05AAD35C1A000B9B9B180B932923CE
:102F8C006B441A7829236B4401321A7029226A4443
:102F9C006B46063312781B789A42E6D36B4607339E
:102FAC001A780B9BD318013B0B930B9B0721180032
:102FBC00FDF7BAF80B001A0023236B441A70232375
:102FCC006B441B7803AAD35C18000CB010BDC04630
:102FDC00043400081034000884B002006B46073338
:102FEC001A706B4606330A1C1A700F236B440122AD
:102FFC001A706B4607331B78172B04D86B460633B5
:10300C001B783B2B03D90F236B4400221A700F2320
:10301C006B441B78180004B07047000010B51B4BB4
:10302C001B4A1A60194B00229A60184B7F22DA60F7
:10303C00164BFF221A61154B00225A61134B1800D4
:10304C00FFF704F8134B21221A70124B30225A70DE
:10305C00104B00229A700F490C4B01221800FFF7FD
:10306C0097F80D4B16229A700B4B08225A700A4B8C
:10307C0003221A70084B2322DA700749034B0122F2
:10308C001800FFF72DF9C04610BDC04610010020F6
:10309C00002800403C0100205001002010B5FDF735
:1030AC000DFA02005D4B1A605D4B1B78052B00D9A5
:1030BC00ADE09A005B4BD3181B689F465A4B1B78AC
:1030CC00002B02D0564B01221A70FDF7F7F90200C3
:1030DC00524B1B68D21AFA239B009A4200D29AE0F8
:1030EC00FDF7ECF902004D4B1A604D4B05221A709E
:1030FC0091E04D4B1B78012B03D1494B02221A70E6
:10310C008AE0494B1B78022B03D1454B03221A70E2
:10311C0082E0454B1B78032B03D1414B04221A70E0
:10312C007AE03F4B00221A7076E03F4BDB68DAB254
:10313C003E4B1A703C4B9B68DAB23C4B5A703A4B84
:10314C005B68DAB2394B9A703849394B0022180057
:10315C00FFF71EF8324B05221A705DE0324B1B69EB
:10316C00DAB2344B9A70304B5B69DAB2314B5A702D
:10317C002D4BDB69DAB22F4B1A702B4B9B69DAB2F1
:10318C002C4BDA702B492A4B00221800FFF7A8F8B9
:10319C00234B05221A703FE0234BDB68DAB2264B37
:1031AC001A70214B9B68DAB2234B5A702249204B80
:1031BC0000221800FFF726F9194B05221A702BE094
:1031CC00194B1A781D4B1A70174BDA681B4BDA60C7
:1031DC00154B9A68194B9A60134B5A68174B5A60E7
:1031EC00114B1A69154B1A610F4B5A69134B5A61E3
:1031FC000D4BDA69114BDA610B4B9A690F4B9A61E3
:10320C00094B00221A70064B00221A7004E0044B82
:10321C0000221A7000E0C046C04610BDCC01002050
:10322C00D0010020443400087C0100203C01002027
:10323C00100100205001002054010020A4010020A6
:10324C0010B54C4B1B78032B00D171E000DD8AE0EC
:10325C00022B3ED000DD86E0002B02D0012B18D0D3
:10326C0081E0454B1B78012B03D1424B01221A7094
:10327C007DE0414B1B78022B03D13E4B02221A708E
:10328C0075E03D4B1B78032B71D13A4B03221A701E
:10329C006DE0394BDB68DAB2384B1A70364B9B68F1
:1032AC00DAB2364B5A70344B5B68DAB2334B9A70E5
:1032BC00334B982252001A60304A3149314B180076
:1032CC00FEF733F82C4B00221A702A4B00221A708E
:1032DC004EE0294B1B69DAB2284B1A70264B5B69FE
:1032EC00DAB2264B5A70244B9B6964211800FCF708
:1032FC00DFFE0300DAB2214B9A701F4B9B696421ED
:10330C001800FCF711FF0B00DAB21C4BDA701C4BE7
:10331C003222FF321A60194A19491A4B1800FEF76B
:10332C0004F8154B00221A70124B00221A701FE081
:10333C00114BDB68DAB2114B1A700F4B9B68DAB287
:10334C000E4B5A700E4B992252001A600B4A0C49C4
:10335C000C4B1800FDF7E9FF074B00221A70054BC8
:10336C0000221A7004E0034B00221A7000E0C046E1
:10337C00C04610BDD1010020A4010020D4010020C2
:10338C00C80000203C00002003008218934200D1AA
:10339C00704719700133F9E770B500260C4C0D4DD0
:1033AC00641BA410A64209D1002600F019F80A4C9F
:1033BC000A4D641BA410A64205D170BDB300EB5896
:1033CC0098470136EEE7B300EB5898470136F2E721
:1033DC005C3400085C340008603400085C3400087D
:1033EC00F8B5C046F8BC08BC9E467047F8B5C04658
:0833FC00F8BC08BC9E467047B6
:103404001F1C1F1E1F1E1F1F1E1F1E1F0001020345
:10341400040506000001020304050607080C101445
:1034240018203040642A00089C2A0008EE2A00086C
:103434006E2B00082C2C00088C2C0008A22C0008F1
:10344400C8300008FE300008363100086831000832
:08345400A4310008CC3100088E
:04345C0075010008EE
:043460004D01000812
:103464000024F400040000000100000000550000E6
:0C3474000000000000AA000000000000A2
:04000005080003816B
:00000001FF
